:100000000C9439010C946A010C946A010C946A01F5
:100010000C946A010C946A010C946A010C946A01B4
:100020000C946A010C946A010C946A010C946A01A4
:100030000C946A010C9461080C946A010C946A0196
:100040000C946A010C94D4090C946A010C946A0112
:100050000C946A010C946A010C946A010C940009D6
:100060000C946A010C946A010C946A010C946A0164
:100070000C946A010C946A010C946A010C946A0154
:100080000C94A6090C946A010C946A010C946A0100
:100090000C946A010C946A010C946A010C946A0134
:1000A0000C946A010C946A010C9478090C946A010E
:1000B0000C946A010C946A010C946A010C944A092C
:1000C0000C946A010C946A010C946A010C946A0104
:1000D0000C946A010C946A010C946A010C946A01F4
:1000E0000C946A010C9471040C9455020C947004E5
:1000F0000C9410020C9425020C942F020C943902DB
:100100000C9482020C94C5010C942B020C942202D4
:100110000C9451020C9443020C940D0E0C941E028C
:100120000C9416020C94C50E0C943D020C941A0209
:100130000C944B020C94F3020C94D7070C945002CD
:100140000C9435020C94B3020C9447020000210079
:10015000240027002A002D00300033000101000098
:10016000040107010A0100002200250028002B00DD
:100170002E003100340002010000050108010B01CE
:10018000000020002300260029002C002F00320050
:100190000001000003010601090105050505070529
:1001A00008080808020202020A0A080804040404F3
:1001B000010101010101010103030303030303031F
:1001C000040707070C0C0C0C0C0C0C0C02020202AE
:1001D00006060606060606060B0B0B0B0B0B0B0B97
:1001E0000102102020080810204010204080020149
:1001F000020108040201010204081020408080402E
:10020000201008040201800402018040201008042C
:1002100002010804020101020408102040800102CA
:1002200004081020408000000A0B02090C0D0E0883
:1002300007030401000000000000000000000000AF
:1002400000000000000000000000000000000000AE
:10025000000012111000000000000000000000006B
:1002600000000000000000000000000002000D0E71
:10027000C50E11241FBECFEFD1E2DEBFCDBF00E01F
:100280000CBF12E0A0E0B2E0E2EFF2E200E00BBF50
:1002900002C007900D92AE39B107D9F723E0AEE95D
:1002A000B2E001C01D92AE3FB207E1F711E0C8E332
:1002B000D1E000E006C021970109802FFE010E94D5
:1002C000400FC733D10780E00807A9F70E94020A50
:1002D0000C9467110C940000E0914F03E03388F513
:1002E0004091500328E830E0241B310947FD339545
:1002F000220F331F220F331F8217930784F0409180
:10030000510328E532E0241B310947FD3395220FC4
:10031000331F220F331F821793070CF49C012250C6
:100320003109220F331F4FB7F8948E2F90E0FC0154
:10033000EE0FFF1FE80FF91FEE5AFC4F32832183A7
:100340004FBF089596E0899FD0011124A652BD4F5A
:1003500090967C936E935F9791E091969C93919782
:10036000E0914703F091480390914603992339F0B7
:10037000309751F0811108C08091F602199430979E
:1003800019F05C968C91FACF0895AF92BF92CF92FC
:10039000DF92EF92FF920F931F93CF93DF936C0145
:1003A0007B018B01040F151FEB015E01AE18BF0826
:1003B000C017D10759F06991D601ED91FC910190D8
:1003C000F081E02DC6011995892B79F7C501DF91E0
:1003D000CF911F910F91FF90EF90DF90CF90BF9042
:1003E000AF9008958150823108F05AC0E82FF0E0B4
:1003F0008827E250FE4F8F4F0C94400F1E022202BE
:10040000100216021A02500225022B022F02350298
:1004100039023D024302470250024B02510255028B
:10042000809180008F778093800008958091800074
:100430008F7DF9CF80918000877FF5CF84B58F774E
:1004400084BD089584B58F7DFBCF8091B0008F77F8
:100450008093B00008958091B0008F7DF9CF809196
:1004600090008F77809390000895809190008F7D09
:10047000F9CF80919000877FF5CF8091A0008F7792
:100480008093A00008958091A0008F7DF9CF809186
:10049000A000877FF5CF809120018F778093200186
:1004A0000895809120018F7DF9CF80912001877F71
:1004B000F5CFCF93DF93282F30E0F901EA5DFD4FB0
:1004C0008491F901E052FE4FD491F901E656FE4FB6
:1004D000C491CC23A1F081110E94F201EC2FF0E035
:1004E000EE0FFF1FE058FE4FA591B491EC91ED2364
:1004F00081E090E009F480E0DF91CF91089580E001
:1005000090E0FACF862F0C9459021F93CF93DF937C
:10051000282F30E0F901EA5DFD4F8491F901E052A6
:10052000FE4FD491F901E656FE4FC491CC23A9F0B9
:10053000162F81110E94F201EC2FF0E0EE0FFF1F49
:10054000EA59FE4FA591B4918FB7F894EC9111112F
:1005500008C0D095DE23DC938FBFDF91CF911F9130
:100560000895DE2BF8CF862F642F0C948502CF934D
:10057000DF9390E0FC01E052FE4F249186569E4F9F
:10058000FC0184918823C9F090E0880F991FFC0139
:10059000E45BFE4FA591B491FC01EA59FE4FC59171
:1005A000D49161110DC09FB7F8948C91209582234E
:1005B0008C938881282328839FBFDF91CF91089552
:1005C000623051F49FB7F8943C91822F8095832339
:1005D0008C93E8812E2BEFCF8FB7F894EC912E2BD4
:1005E0002C938FBFEACF862F642F0C94B7023FB7AE
:1005F000F8948091C1029091C202A091C302B0917F
:10060000C40226B5A89B05C02F3F19F00196A11D75
:10061000B11D3FBFBA2FA92F982F8827BC01CD014C
:10062000620F711D811D911D42E0660F771F881FAB
:10063000991F4A95D1F708958F929F92AF92BF92DA
:10064000CF92DF92EF92FF924B015C010E94F70282
:100650006B017C010E94F7026C197D098E099F09CC
:10066000683E734081059105A8F321E0821A910844
:10067000A108B10888EEC80E83E0D81EE11CF11C69
:1006800081149104A104B10429F7FF90EF90DF9049
:10069000CF90BF90AF909F908F9008952FB7F89410
:1006A0006091BD027091BE028091BF029091C00224
:1006B0002FBF08950F931F93CF93DF93C82FD62F8B
:1006C00086E0C89FF0011124E652FD4F11A2878DEC
:1006D00090A181309105F1F058F082309105F1F14F
:1006E000039709F440C0DF91CF911F910F910895B6
:1006F0006623C9F361E070E08C2F0E94A2010E9482
:100700004E036093320370933303809334039093CA
:100710003503E9CF0E944E03009132031091330359
:100720002091340330913503AB01BC01401B510BC8
:10073000620B730B8091440390914503B0E0A0E0FD
:1007400084179507A607B70748F462E070E08C2F7E
:10075000DF91CF911F910F910C94A20163E070E0A3
:10076000D111C1CFF4CF70E060E0F1CFAF92BF9272
:10077000CF92DF92EF92FF920F931F93CF93DF936D
:100780006B017A01EC01C854DD4F28813CE0389FB1
:100790008001399F100D1124A090B702B12C27FFC2
:1007A0001FC0FB011182108288818F5F888388813E
:1007B0009801280F311D87FD3A95F6012A153B0552
:1007C0001CF488818C30C4F180819181049680343E
:1007D0009C4908F473C0F60180819181049670C031
:1007E00088819801280F311D87FD3A952A153B0510
:1007F000DCF68881A801480F511D87FD5A95FA0142
:10080000EE0FFF1FE40FF51FEE5AFC4F808186FFAD
:10081000CBCF8881F801E80FF11D87FDFA95CF0154
:10082000EE0FFF1FE80FF91FEE5AFC4F808160E0CA
:100830008F730E948502B8CF808191812881A801A1
:10084000420F511D27FD5A959A01FA01EE0FFF1F25
:10085000E20FF31FEE5AFC4F21813281820F931F6A
:10086000F7019183808388819801280F311D87FDCE
:100870003A95F901EE0FFF1FE20FF31FEE5AFC4FFE
:10088000808186FF22C08881080F111D87FD1A957F
:10089000F801EE0FFF1FE00FF11FEE5AFC4F8081B1
:1008A00061E08F73DF91CF911F910F91FF90EF90D7
:1008B000DF90CF90BF90AF900C94850280E49CE9CC
:1008C000F701918380838FEF8883DF91CF911F9110
:1008D0000F91FF90EF90DF90CF90BF90AF90089571
:1008E000089590E080E00895CF93809118028533B9
:1008F00021F08F3F61F1CF910895ECE6F2E0C491D1
:10090000C7FDF9CF61E085E30E94B702CC2309F46B
:10091000F1C0C23009F006C18091B100887F8360C8
:100920008093B10089EF8093B30088E592E0A0E066
:10093000B0E08093C8029093C902A093CA02B0931A
:10094000CB0280917000826080937000D4CF85E3E9
:1009500080931802ECE6F2E0C4918C2FCF3F59F25D
:10096000C23009F468C060F4CC2379F1C13009F4D5
:1009700044C087FDC0CF61E085E30E94B702C9CFC4
:10098000C43009F499C008F478C0C53091F71092CA
:100990002001109221018091210188608093210122
:1009A00080912101816080932101EFECF1E0E491DD
:1009B000F0E0EE0FFF1FEA59FE4F85919491E5E1BB
:1009C000F2E0E491E0939E029DCF14BC15BC84B587
:1009D000826084BD85B5816085BDEFECF1E0E49176
:1009E000F0E0EE0FFF1FEA59FE4F85919491E5E18B
:1009F000F2E0E491E093A20285CF10928000109281
:100A000081008091810088608093810080918100C5
:100A1000816080938100EFECF1E0E491F0E0EE0F73
:100A2000FF1FEA59FE4F85919491E5E1F2E0E491D0
:100A3000E093A10267CF1092B0001092B1008091B4
:100A4000B00082608093B0008091B100816080939B
:100A5000B100EFECF1E0E491F0E0EE0FFF1FEA5996
:100A6000FE4F859194919093C6028093C502E5E173
:100A7000F2E0E491E093C70245CF1092900010920B
:100A80009100809191008860809391008091910005
:100A9000816080939100EFECF1E0E491F0E0EE0FE3
:100AA000FF1FEA59FE4F85919491E5E1F2E0E49150
:100AB000E093A002C3E026CF1092A0001092A10004
:100AC0008091A10088608093A1008091A100816045
:100AD0008093A100EFECF1E0E491F0E0EE0FFF1F56
:100AE000EA59FE4F85919491E5E1F2E0E491E093BB
:100AF0009F0208CF85B5887F836085BD8CE787BD61
:100B000088E592E0A0E0B0E08093B3029093B40255
:100B1000A093B502B093B60280916E00826080937C
:100B20006E00E9CEC130F1F480918100887F816050
:100B3000809381008FE39FE19093890080938800E8
:100B400088E592E0A0E0B0E08093AF029093B0021D
:100B5000A093B102B093B20280916F008260809343
:100B60006F00C9CEC330F1F480919100887F81601D
:100B7000809391008FE39FE1909399008093980078
:100B800088E592E0A0E0B0E08093AB029093AC02E5
:100B9000A093AD02B093AE02809171008260809309
:100BA0007100A9CEC430F1F48091A100887F8160EA
:100BB0008093A1008FE39FE19093A9008093A80008
:100BC00088E592E0A0E0B0E08093A7029093A802AD
:100BD000A093A902B093AA028091720082608093D0
:100BE000720089CEC530F1F480912101887F816047
:100BF000809321018FE39FE1909329018093280145
:100C000088E592E0A0E0B0E08093A3029093A40274
:100C1000A093A502B093A602809173008260809396
:100C2000730069CEC23091F034F4CC2369F0C13046
:100C300009F061CE7FCFC43009F4BCCF0CF49ACF59
:100C4000C53009F058CED6CF8FE359CF8FE36BCEA6
:100C50008F929F92AF92BF920F931F93CF93DF9388
:100C6000CDB7DEB7A1970FB6F894DEBF0FBECDBFEC
:100C700019A2423008F44AE08E010F5D1F4F842E06
:100C8000912CB12CA12CA50194010E94120FE62FEA
:100C9000B901CA01EA3044F5E05DD801EE938D0157
:100CA000232B242B252B79F790E080E0109769F017
:100CB000FD0101900020E9F73197AF014A1B5B0B62
:100CC000BD0182EE93E00E94C501A1960FB6F89493
:100CD000DEBF0FBECDBFDF91CF911F910F91BF90AF
:100CE000AF909F908F900895E95CD7CFFC01019061
:100CF0000020E9F73197AF01481B590BBC0182EE88
:100D000093E00C94C501CF93DF93EC0160E08E81FA
:100D10000E94850261E08E810E94850260E08E81E2
:100D20000E9485028BE891E00197F1F7DF91CF9166
:100D30000895CF92DF92EF92FF920F931F93CF937C
:100D4000DF936C017C0187E0E80EF11CD0E0C0E08D
:100D5000062F10E0B8010C2E02C0759567950A9415
:100D6000E2F76170F70181917F010E94850221966F
:100D7000C430D10579F7C601DF91CF911F910F9152
:100D8000FF90EF90DF90CF900C948306CF92DF928C
:100D9000EF92FF920F931F93CF93DF93EC01F62E08
:100DA000642F8C810E9485028D818F3F19F060E055
:100DB0000E9485020F2D10E08F8584FF25C06E01F3
:100DC00087E0C80ED11CF12CE12CB8010E2C02C01A
:100DD000759567950A94E2F76170F60181916F014C
:100DE0000E948502FFEFEF1AFF0A88E0E816F1047F
:100DF00061F7CE01DF91CF911F910F91FF90EF909E
:100E0000DF90CF900C948306B80184E075956795C8
:100E10008A95E1F7CE010E9499066F2DCE01DF91F0
:100E2000CF911F910F91FF90EF90DF90CF900C9496
:100E3000990640E0682F82EE93E00C94C60681E0AC
:100E40000E9419078BE39FE10197F1F70895CF9373
:100E5000DF93823029F49091F10398609093F1032D
:100E60008093F5031092F60380E48093F70380E10A
:100E70008093F80380E58093F90361E08091E603B5
:100E80000E94B7028091E7038F3F19F061E00E9452
:100E9000B70261E08091E8030E94B702C2EED3E09E
:100EA0009E01225E33408091F10384FD0BC084E0FB
:100EB00090E021962817390744F461E08E810E9462
:100EC000B702EECF88E090E0F4CF8BE39DE001978E
:100ED000F1F760E08091E6030E94850260E0809176
:100EE000E8030E9485028091E7038F3F19F060E0DC
:100EF0000E9485028091F10384FD34C063E082EE9C
:100F000093E00E949906CBE4D6E4CE010197F1F775
:100F100063E082EE93E00E9499062197F1F763E087
:100F200082EE93E00E94990683E592E00197F1F743
:100F300062E082EE93E00E9499068091F103806264
:100F40000E94190784E08093F2038CE00E94190745
:100F50000E941F0782E08093F30386E0DF91CF9128
:100F60000C94190780620E9419078BE496E401979C
:100F7000F1F78091F10380620E94190783E592E006
:100F80000197F1F78091F10380620E941907D5CF94
:100F90009091F503691710F06FEF690FE62FF0E0FD
:100FA000EE51FC4F9489890F80680C94190741E039
:100FB0000E94C60681E090E00895CF92DF92EF9202
:100FC000FF926C01990FEE08FF08F7FE16C041E092
:100FD0006DE282EE93E00E94C60666277727CB017A
:100FE0006C197D098E099F094AE00E942806019626
:100FF000FF90EF90DF90CF9008954AE0C701B601CF
:10100000FF90EF90DF90CF900C9428060F931F93E2
:10101000CF93DF93EC0188819981009759F02A8161
:101020003B812617370730F081E0DF91CF911F9188
:101030000F9108958B016F5F7F4F0E946D10009795
:1010400059F0998388831B830A832C813D81232B4C
:1010500059F7FC011082E8CF80E0E7CFEF92FF92D2
:101060000F931F93CF93DF93EC017B018A01BA01A9
:101070000E94060828813981811114C0211531058B
:1010800019F0C9010E94E40F198218821D821C8286
:101090001B821A82CE01DF91CF911F910F91FF9099
:1010A000EF9008951D830C83B701C9010E94601160
:1010B000F1CF50E040E062E572E089E493E00C9407
:1010C0002E081F920F920FB60F9211240BB60F929B
:1010D0002F933F934F935F936F937F938F939F9340
:1010E000AF93BF93EF93FF938091C8029091C90291
:1010F000A091CA02B091CB02892B8A2B8B2BE1F1F4
:101100009091C702E091C502F091C60280818927C3
:1011100080838091C8029091C902A091CA02B091C7
:10112000CB02181619061A061B069CF48091C802F9
:101130009091C902A091CA02B091CB020197A10976
:10114000B1098093C8029093C902A093CA02B093D8
:10115000CB02FF91EF91BF91AF919F918F917F91C2
:101160006F915F914F913F912F910F900BBE0F9018
:101170000FBE0F901F90189580911802ECE6F2E0D8
:10118000E4919FEF90931802E230E9F040F4EE23EF
:1011900089F0E13091F060E00E948502DACFE4301E
:1011A00049F110F1E530B9F7909173009D7F90936C
:1011B0007300F1CF10926E00EECF90916F009D7F83
:1011C00090936F00E8CF909170009D7F9093700096
:1011D00091E09093B0009091B100987F94609093CB
:1011E000B1001092B300D7CF909171009D7F909382
:1011F0007100D1CF909172009D7F90937200CBCF00
:101200001F920F920FB60F9211242F933F938F933B
:101210009F93AF93BF938091BD029091BE02A09126
:10122000BF02B091C0023091BC0223E0230F2D37E2
:1012300058F50196A11DB11D2093BC028093BD02FB
:101240009093BE02A093BF02B093C0028091C102EE
:101250009091C202A091C302B091C4020196A11D57
:10126000B11D8093C1029093C202A093C302B093B8
:10127000C402BF91AF919F918F913F912F910F9099
:101280000FBE0F901F90189526E8230F0296A11D00
:10129000B11DD2CF1F920F920FB60F9211240BB631
:1012A0000F922F933F934F935F936F937F938F93FF
:1012B0009F93AF93BF93EF93FF9348E251E064E2B3
:1012C00071E090E080E00E94B603FF91EF91BF9142
:1012D000AF919F918F917F916F915F914F913F91CE
:1012E0002F910F900BBE0F900FBE0F901F9018956F
:1012F0001F920F920FB60F9211240BB60F922F93DD
:101300003F934F935F936F937F938F939F93AF938D
:10131000BF93EF93FF9348EA50E064EA70E083E004
:1013200090E00E94B603FF91EF91BF91AF919F9122
:101330008F917F916F915F914F913F912F910F907E
:101340000BBE0F900FBE0F901F9018951F920F921B
:101350000FB60F9211240BB60F922F933F934F931A
:101360005F936F937F938F939F93AF93BF93EF930D
:10137000FF9348E950E064E970E082E090E00E9469
:10138000B603FF91EF91BF91AF919F918F917F91A4
:101390006F915F914F913F912F910F900BBE0F90E6
:1013A0000FBE0F901F9018951F920F920FB60F92BD
:1013B00011240BB60F922F933F934F935F936F932C
:1013C0007F938F939F93AF93BF93EF93FF9348E8DF
:1013D00050E064E870E081E090E00E94B603FF9185
:1013E000EF91BF91AF919F918F917F916F915F919D
:1013F0004F913F912F910F900BBE0F900FBE0F900A
:101400001F901895CF93DF931F921F92CDB7DEB731
:10141000789484B5826084BD84B5816084BD85B5CF
:10142000826085BD85B5816085BD80916E008160DB
:1014300080936E0010928100809181008260809381
:101440008100809181008160809381008091800083
:101450008160809380008091B10084608093B100AE
:101460008091B00081608093B00080919100826093
:101470008093910080919100816080939100809190
:1014800090008160809390008091A10082608093A1
:10149000A1008091A10081608093A1008091A000B3
:1014A00081608093A000809121018260809321015E
:1014B00080912101816080932101809120018160D0
:1014C0008093200180917A00846080937A008091DB
:1014D0007A00826080937A0080917A0081608093A4
:1014E0007A0080917A00806880937A001092C1001F
:1014F00061E081E30E94B70261E082E30E94B702EB
:1015000060E081E30E94850261E082E30E9485023F
:1015100082E00E9427070E941F0761E080E00E948E
:10152000C80788E392E00E94760661E085E30E94A6
:10153000B70280914F03803308F054C061E083E02C
:101540000E94B70280914F03282F30E0F901EE0F7F
:10155000FF1FE20FF31FEE5AFC4F9081907C9360C7
:1015600090839EE89093500394E6909351032CE06F
:10157000622F0E94340F829FB001112430E020E0DE
:10158000AB01420F531FFA01EE0FFF1FE40FF51FCF
:10159000EE5AFC4F908196FD17C02F5F3F4F2C30C5
:1015A000310571F7813009F0DDC01092800082E0D2
:1015B000809381001092850010928400B19A8091EE
:1015C0006F00826080936F00E0914F038E2F90E058
:1015D000FC01EE0FFF1FE80FF91FEE5AFC4F808150
:1015E00080648083412C512C32014394EE24E39497
:1015F00046E0242E0E944E034B015C0180911B02A9
:1016000081115DC04091D0025091D1026091D2020F
:101610007091D3022091190230911A02E8EEF3E0A2
:101620002E9FC0012F9F900D3E9F900D1124092EDB
:10163000000CAA0BBB0B95018401041B150B260B98
:10164000370B80179107A207B30708F4B7C0840FC0
:10165000951FA61FB71FBC01CD01681979098A091A
:101660009B0928EE33E040E050E00E94120F709397
:10167000CF026093CE02CA01B9012CE330E040E012
:1016800050E00E94120F4B017093CD026093CC0288
:1016900061E088E00E94C807C4010E94DD078EE374
:1016A00092E00E9476068091CE029091CF020E9435
:1016B000DD0764E670E080E090E00E941C0380910A
:1016C0001B0261E0882309F488C080E00E94C807FB
:1016D00088E392E00E94760660E081E30E94850242
:1016E00061E082E30E9485022091510388E592E047
:1016F000821B910927FD9395880F991F880F991FC9
:101700000E946C01E09246030E944E030091360352
:10171000109137032091380330913903AB01BC019C
:10172000401B510B620B730B80914203909143035A
:10173000B0E0A0E084179507A607B70708F063C1DB
:1017400010E080914003181708F05BC0E0913C0363
:10175000F0913D03E10FF11D62E080810E94B7022C
:101760001F5FEFCF823061F4109290008093910060
:10177000109295001092940088BB8093710024CF42
:10178000833069F41092A00082E08093A10010924F
:10179000A5001092A40089BB8093720015CF81111F
:1017A00013CF1092200182E0809321011092250135
:1017B000109224018ABB8093730006CFE0921B0233
:1017C0000E94590860E080E00E94C80782E492E02D
:1017D0000E9476060E94740472CF80E00E94C807BF
:1017E00083E592E00E94760661E081E30E94850233
:1017F00060E082E30E9485022091500388E890E037
:1018000077CFF12C80914103F81608F061C0CF2CFE
:10181000D12CE0913E03F0913F03EC0DFD1D61E002
:1018200080810E94B702E0913E03F0913F03EC0DEE
:10183000FD1D60E080810E948502D301C2010F2C52
:1018400004C0880F991FAA1FBB1F0A94D2F74C012E
:101850005C01A094B094312C80914003381608F5B7
:10186000032D10E0E0913C03F0913D03E00FF11FE8
:1018700080810E9459020C5F1F4F000F111FF80159
:10188000E652FD4F892B41F4808191818829992965
:10189000918380833394E0CF808191818A219B2141
:1018A000F7CFE0913E03F0913F03EC0DFD1D61E0A9
:1018B00080810E94850280913E0390913F03C80E73
:1018C000D91E60E0F60180810E94B702F3949ACF9E
:1018D0009AEDC92E92E0D92E8601F801878D90A14C
:1018E000892B31F4148E8FEF9FEF968F858F11A285
:1018F0000A5F1F4F93E00631190779F7F12C8091A9
:101900004003F81608F052C0B12C8F2C912C880C93
:10191000991CF401EE51FD4F4F0120914103B21685
:1019200008F042C0F401608171810B2C02C07695F1
:1019300067950A94E2F7F29E900111242B0D311D58
:10194000EAEDF2E080E0458D568D2417350709F465
:1019500031C18F5F36968A30B1F760FF23C0EAED60
:10196000F2E090E080E0448D411117C0E0913A032D
:10197000F0913B03E20FF31F4081289EF001299E66
:10198000F00D1124E652FD4F448F368F258F10A2A3
:10199000178E61E00E945A0305C0019636968A3080
:1019A000910509F7B394B9CFF394A9CFF12CF601BF
:1019B00081A18111F82EF6E0CF0ED11C0C151D056A
:1019C000B1F70E944E036093360370933703809300
:1019D000380390933903FF20B1F08091FB028823F4
:1019E00091F08091F9029091FA02019761F41091BF
:1019F000F60211110BC080E090E0892B09F4FACDBA
:101A00000E940000F3CD10924603F5CF1A3279F50B
:101A100080911B02882309F498C040914D03509196
:101A20004E032091D8023091D90242175307C1F4D6
:101A30008091490390914A036091D4027091D5023C
:101A4000009709F4B9C06115710539F4452B09F403
:101A5000C1C0FC01808190E0BAC00E945711B7C09C
:101A600060E080E00E94C8078AE692E0D1C01B32A5
:101A700009F041C080911B02811167C00E941F07BD
:101A800040914D0350914E036091490370914A0378
:101A900082EE93E00E94C5016091490370914A0370
:101AA0006115710599F040914D0350914E0384EDFD
:101AB00092E00E942E080E94590860E080E00E9497
:101AC000C8078CE792E00E94760695CF8091D402F9
:101AD0009091D502009711F00E94E40F1092D50268
:101AE0001092D4021092D9021092D8021092D7020A
:101AF0001092D602E0CF1F32E9F480911B028111CF
:101B000024C08091490390914A03009779F00E9484
:101B1000D60E70931A02609319020E94590860E071
:101B200080E00E94C8078AE892E0CDCF60E070E0D4
:101B3000CB01EFCF133249F40E941F070E945908CE
:101B4000E0921B020E94740456CF60E080E00E9485
:101B5000C80719831A8200914D0310914E030F5F3D
:101B60001F4FB80189E493E00E940608882399F08A
:101B70002091490330914A0380914D0390914E0387
:101B8000BE016F5F7F4F820F931F0E946011109301
:101B90004E0300934D030E941F0740914D03509147
:101BA0004E036091490370914A0382EE93E00E94D4
:101BB000C50121CF6170EECE6115710559F0232B5F
:101BC00049F0FB01808190E0919581959109892BE5
:101BD00009F046CF10921B020E9474040E944E032B
:101BE0006093D0027093D1028093D2029093D3027B
:101BF00060E080E00E94C80789E592E00E947606D6
:101C000068EE73E080E090E00E941C0382E492E0C2
:101C10000E9476060E945908EECE1092E5031092BB
:101C2000E40380E392E09093E3038093E2038DE08A
:101C30008093E6038FEF8093E7038CE08093E803C3
:101C400088E08093E90389E08093EA038AE0809347
:101C5000EB038BE08093EC031092ED031092EE0304
:101C60001092EF031092F0031092F10381E00E94B2
:101C700027071092DC021092E0021092DF0210920D
:101C8000E10286E292E09093DB028093DA02E6EFD3
:101C9000F2E01082148213821582369683E0E233DA
:101CA000F807B9F784E092E090933D0380933C03FA
:101CB00080E092E090933F0380933E0384E0809322
:101CC00040038093410388E092E090933B0380932C
:101CD0003A038AE090E0909343038093420384EFB9
:101CE00091E090934503809344031092480310922F
:101CF0004703109236031092370310923803109264
:101D00003903109246038091B7028033D0F591E0F9
:101D1000980F9093B70280934F0390E0FC01EE0F71
:101D2000FF1FE80FF91FEE5AFC4F88EB9BE09283F0
:101D300081831092D5021092D4021092D702109291
:101D4000D6021092D9021092D80244E050E069E91C
:101D500072E084ED92E00E942E0810924A031092E5
:101D6000490310924C0310924B0310924E031092B1
:101D70004D0350E040E062E572E089E493E00C94AA
:101D80002E088FEF80934F03D4CF80914903909119
:101D90004A03009711F00E94E40F8091D4029091C1
:101DA000D502009711F00C94E40F08951F93FC01E5
:101DB00099278827BC01E89411911032E9F3193072
:101DC00010F01E30C8F31B3251F01D3249F46894F4
:101DD00006C00E94FD0E610F711D811D911D1191A4
:101DE00010531A30B0F33EF490958095709561953C
:101DF0007F4F8F4F9F4F1F910895592F482F372F97
:101E0000262F660F771F881F991F660F771F881F61
:101E1000991F620F731F841F951F660F771F881FFE
:101E2000991F0895A1E21A2EAA1BBB1BFD010DC02C
:101E3000AA1FBB1FEE1FFF1FA217B307E407F5077A
:101E400020F0A21BB30BE40BF50B661F771F881F56
:101E5000991F1A9469F760957095809590959B01EC
:101E6000AC01BD01CF010895991B79E004C0991F11
:101E7000961708F0961B881F7A95C9F780950895E4
:101E8000EE0FFF1F881F8BBF0790F691E02D19946E
:101E90000F931F93CF93DF938230910510F482E06C
:101EA00090E0E091FC03F091FD0330E020E0B0E031
:101EB000A0E0309799F42115310509F44AC0281B98
:101EC000390B24303105D8F58A819B816115710564
:101ED00089F1FB0193838283FE0111C0408151810E
:101EE0000281138148175907E0F04817590799F400
:101EF000109761F012960C93129713961C933296DA
:101F0000CF01DF91CF911F910F9108950093FC03B2
:101F10001093FD03F4CF2115310551F042175307FB
:101F200038F0A901DB019A01BD01DF01F801C1CF41
:101F3000EF01F9CF9093FD038093FC03CDCFFE0119
:101F4000E20FF31F81939193225031093983288343
:101F5000D7CF2091FA033091FB03232B41F420913A
:101F60001E0230911F023093FB032093FA0320914D
:101F70001C0230911D022115310541F42DB73EB7E9
:101F80004091200250912102241B350BE091FA036D
:101F9000F091FB03E217F307A0F42E1B3F0B281769
:101FA000390778F0AC014E5F5F4F2417350748F0D2
:101FB0004E0F5F1F5093FB034093FA03819391935D
:101FC0009FCFF0E0E0E09CCFCF93DF930097E9F064
:101FD000FC01329713821282A091FC03B091FD03A1
:101FE000ED0130E020E01097A1F420813181820FD3
:101FF000931F2091FA033091FB032817390709F04A
:1020000061C0F093FB03E093FA03DF91CF91089551
:10201000EA01CE17DF07E8F54A815B819E01411591
:102020005105B1F7E901FB83EA8349915991C40F46
:10203000D51FEC17FD0761F4808191810296840F12
:10204000951FE90199838883828193819B838A8389
:10205000F0E0E0E012968D919C9113970097B9F50E
:102060002D913C911197CD010296820F931F2091E3
:10207000FA033091FB032817390739F6309751F5E9
:102080001092FD031092FC03B093FB03A093FA039C
:10209000BCCFD383C28340815181840F951FC81761
:1020A000D90761F44E5F5F4F88819981480F591FAE
:1020B000518340838A819B819383828321153105DB
:1020C00009F0B0CFF093FD03E093FC039ECFFD0138
:1020D000DC01C0CF13821282D7CF4F925F926F92F2
:1020E0007F928F929F92AF92BF92CF92DF92EF92A8
:1020F000FF920F931F93CF93DF938C01009799F476
:10210000CB01DF91CF911F910F91FF90EF90DF9066
:10211000CF90BF90AF909F908F907F906F905F9087
:102120004F900C94480FFC01E60FF71F9C012250C2
:102130003109E217F30708F4AEC0D901CD91DC9163
:102140001197C617D70720F1C530D10578F0CE0119
:1021500004978617970750F0C61BD70B2297C19399
:10216000D1936D937C93CF010E94E40FC801DF915E
:10217000CF911F910F91FF90EF90DF90CF90BF9084
:10218000AF909F908F907F906F905F904F90089549
:102190005B01AC1ABD0A4C018C0E9D1EA091FC0384
:1021A000B091FD03512C412CF12CE12C109731F50D
:1021B0008091FA039091FB038815990509F05CC0A2
:1021C0004616570608F058C080911C0290911D02D7
:1021D000009741F48DB79EB74091200250912102A3
:1021E000841B950BE817F90708F055C0F093FB0323
:1021F000E093FA03F90171836083B8CF8D919C91CC
:10220000119712966C90129713967C901397A815BD
:10221000B90559F56C0142E0C40ED11CCA14DB04A7
:1022200020F1AC014A195B09DA011296159780F08A
:102230006282738251834083D9016D937C93E11450
:10224000F10471F0D7011396FC93EE9312978ECFA1
:1022500022968C0F9D1FF90191838083F301EFCFAC
:10226000F093FD03E093FC0381CF4816590608F470
:102270002C017D01D3019ACFCB010E94480F7C0134
:10228000009749F0AE01B8010E944E11C8010E94AA
:10229000E40F87016BCF10E000E068CFFB01DC01A9
:1022A00002C001900D9241505040D8F70895FB01B3
:1022B000DC018D91019080190110D9F3990B0895DB
:1022C000FB01DC0101900D920020E1F7089511E07F
:1022D000C8E3D1E000E006C0802FFE010E94400F5D
:1022E0002196011DC933D10780E00807A9F7F894AA
:0222F000FFCF1E
:1022F2001A1B1C1D161718193738392F3435362A70
:102302003132332D23303D2BFF0A00010000FE0342
:10231200800000000000F302B3028202000000000D
:10232200D707C50171047004636C6F736500203AAE
:1023320020002020202020202020202020202020BB
:102342002020006F70656E2000636F727265637487
:102352002070617373776F7264002077726F6E679B
:102362002070617373776F726421200070617373E0
:10237200206368616E676564210074696D6572200F
:0E2382006368616E6765642100313233340098
:00000001FF
