:100000000C9438010C9469010C9469010C946901F9
:100010000C9469010C9469010C9469010C946901B8
:100020000C9469010C9469010C9469010C946901A8
:100030000C9469010C9469010C9469010C94690198
:100040000C9469010C9469010C9469010C94690188
:100050000C9469010C9469010C9469010C9492054B
:100060000C9469010C9469010C9469010C94690168
:100070000C9469010C9469010C9469010C94690158
:100080000C9469010C9469010C9469010C94690148
:100090000C9469010C9469010C9469010C94690138
:1000A0000C9469010C9469010C9469010C94690128
:1000B0000C9469010C9469010C9469010C94690118
:1000C0000C9469010C9469010C9469010C94690108
:1000D0000C9469010C9469010C9469010C946901F8
:1000E0000C9469010C94D3040C943A030C94890287
:1000F0000C9435030C947F020C9493020C946402CC
:100100000C9477020C948D020C94F5020C946D0201
:100110000C94FE010C9497020C9460020C9458020B
:100120000C9439030C9452020C9467020C94C40290
:100130000C9485020C9492020C9423090C94A1094E
:100140000C947B020C9471020C945C020000210060
:10015000240027002A002D00300033000101000098
:10016000040107010A0100002200250028002B00DD
:100170002E003100340002010000050108010B01CE
:10018000000020002300260029002C002F00320050
:100190000001000003010601090105050505070529
:1001A00008080808020202020A0A080804040404F3
:1001B000010101010101010103030303030303031F
:1001C000040707070C0C0C0C0C0C0C0C02020202AE
:1001D00006060606060606060B0B0B0B0B0B0B0B97
:1001E0000102102020080810204010204080020149
:1001F000020108040201010204081020408080402E
:10020000201008040201800402018040201008042C
:1002100002010804020101020408102040800102CA
:1002200004081020408000000A0B02090C0D0E0883
:1002300007030401000000000000000000000000AF
:1002400000000000000000000000000000000000AE
:10025000000012111000000000000000000000006B
:100260000000000000000000000000002309A109B8
:1002700011241FBECFEFD1E2DEBFCDBF00E00CBF27
:1002800022E0A2E4B2E001C01D92AB3EB207E1F76A
:1002900012E0A0E0B2E0E4E6FCE100E00BBF02C047
:1002A00007900D92A234B107D9F711E0C7E3D1E06E
:1002B00000E006C021970109802FFE010E94EE0B8D
:1002C000C633D10780E00807A9F70E94DC050C942B
:1002D000200E0C94000096E0899FD0011124A05AB2
:1002E000BD4F90967C936E935F9791E091969C930F
:1002F0009197E091CD02F091CE029091CC0299239A
:1003000039F0309751F0811108C080917C02199426
:10031000309719F05C968C91FACF0895CF92DF92C6
:10032000EF92FF920F931F9396E0899FF0011124A3
:10033000E05AFD4F11A2278D30A12130310551F136
:1003400078F02230310509F451C02330310509F429
:1003500052C01F910F91FF90EF90DF90CF900895C2
:100360006623B9F361E070E00E946B012FB7F89447
:1003700080915C0290915D02A0915E02B0915F025B
:100380002FBF8093B8029093B902A093BA02B093A2
:10039000BB02DFCF9FB7F894C0905C02D0905D02A3
:1003A000E0905E02F0905F029FBF0091B802109152
:1003B000B9022091BA023091BB02C01AD10AE20AF6
:1003C000F30A0091CA021091CB0230E020E00C1534
:1003D0001D052E053F0550F462E070E01F910F915E
:1003E000FF90EF90DF90CF900C946B016111B1CF33
:1003F00063E070E0F3CF70E060E0F0CFAF92BF92C7
:10040000CF92DF92EF92FF920F931F93CF93DF93E0
:100410006C017B018B01040F151FEB015E01AE180F
:10042000BF08C017D10759F06991D601ED91FC9131
:100430000190F081E02DC6011995892B79F7C5014E
:10044000DF91CF911F910F91FF90EF90DF90CF90B0
:10045000BF90AF900895FC01448155816081718106
:100460008FEC92E00C94FE018150823108F05AC06A
:10047000E82FF0E08827E05CFD4F8F4F0C94EE0BE7
:1004800060026402520258025C02920267026D022C
:10049000710277027B027F028502890292028D023D
:1004A00093029702809180008F7780938000089557
:1004B000809180008F7DF9CF80918000877FF5CF7C
:1004C00084B58F7784BD089584B58F7DFBCF8091EF
:1004D000B0008F778093B00008958091B0008F7D39
:1004E000F9CF809190008F7780939000089580914C
:1004F00090008F7DF9CF80919000877FF5CF80911C
:10050000A0008F778093A00008958091A0008F7D38
:10051000F9CF8091A000877FF5CF809120018F7760
:10052000809320010895809120018F7DF9CF8091E3
:100530002001877FF5CFCF93DF93282F30E0F9019B
:10054000EA5DFD4F8491F901E052FE4FD491F9012B
:10055000E656FE4FC491CC23A1F081110E943402D3
:10056000EC2FF0E0EE0FFF1FE058FE4FA591B49185
:10057000EC91ED2381E090E009F480E0DF91CF91F0
:10058000089580E090E0FACF862F0C949B021F9391
:10059000CF93DF93282F30E0F901EA5DFD4F84917E
:1005A000F901E052FE4FD491F901E656FE4FC49195
:1005B000CC23A9F0162F81110E943402EC2FF0E019
:1005C000EE0FFF1FEA59FE4FA591B4918FB7F89433
:1005D000EC91111108C0D095DE23DC938FBFDF9121
:1005E000CF911F910895DE2BF8CF862F642F0C94A6
:1005F000C702CF93DF9390E0FC01E052FE4F2491BD
:1006000086569E4FFC0184918823C9F090E0880FA4
:10061000991FFC01E45BFE4FA591B491FC01EA59DE
:10062000FE4FC591D49161110DC09FB7F8948C9184
:10063000209582238C938881282328839FBFDF9174
:10064000CF910895623051F49FB7F8943C91822F76
:10065000809583238C93E8812E2BEFCF8FB7F8946E
:10066000EC912E2B2C938FBFEACF862F642F0C9406
:10067000F902089590E080E00895FC0101900020C7
:10068000E9F73197AF01481B590BBC018FEC92E0A1
:100690000C94FE018F929F92AF92BF920F931F9383
:1006A000CF93DF93CDB7DEB7A1970FB6F894DEBF37
:1006B0000FBECDBF19A2423008F44AE08E010F5D93
:1006C0001F4F842E912CB12CA12CA50194010E94C6
:1006D000CC0BE62FB901CA01EA30F4F4E05DD80191
:1006E000EE938D01232B242B252B79F790E080E0CE
:1006F000109719F0CD010E943D03A1960FB6F89412
:10070000DEBF0FBECDBFDF91CF911F910F91BF9084
:10071000AF909F908F900895E95CE1CFCF93DF93E6
:10072000EC0160E08E810E94C70261E08E810E9430
:10073000C70260E08E810E94C7028BE891E00197BA
:10074000F1F7DF91CF910895CF92DF92EF92FF9270
:100750000F931F93CF93DF936C017C0187E0E80E2A
:10076000F11CD0E0C0E0062F10E0B8010C2E02C052
:10077000759567950A94E2F76170F70181917F01A1
:100780000E94C7022196C430D10579F7C601DF91D6
:10079000CF911F910F91FF90EF90DF90CF900C942D
:1007A0008E03CF92DF92EF92FF920F931F93CF931E
:1007B000DF93EC01F62E642F8C810E94C7028D819D
:1007C0008F3F19F060E00E94C7020F2D10E08F8567
:1007D00084FF25C06E0187E0C80ED11CF12CE12CEE
:1007E000B8010E2C02C0759567950A94E2F7617006
:1007F000F60181916F010E94C702FFEFEF1AFF0A15
:1008000088E0E816F10461F7CE01DF91CF911F91E6
:100810000F91FF90EF90DF90CF900C948E03B80172
:1008200084E0759567958A95E1F7CE010E94A4034F
:100830006F2DCE01DF91CF911F910F91FF90EF901F
:10084000DF90CF900C94A40340E0682F8FEC92E0EF
:100850000C94D10381E00E9424048BE39FE1019773
:10086000F1F70895CF93DF93823029F49091DE025F
:1008700098609093DE028093E2021092E30280E49B
:100880008093E40280E18093E50280E58093E602B4
:1008900061E08091D3020E94F9028091D4028F3FDF
:1008A00019F061E00E94F90261E08091D5020E9496
:1008B000F902CFECD2E09E012F5C32408091DE0243
:1008C00084FD0BC084E090E021962817390744F49A
:1008D00061E08E810E94F902EECF88E090E0F4CFD3
:1008E0008BE39DE00197F1F760E08091D3020E94D5
:1008F000C70260E08091D5020E94C7028091D402B5
:100900008F3F19F060E00E94C7028091DE0284FDF3
:1009100034C063E08FEC92E00E94A403CBE4D6E401
:10092000CE010197F1F763E08FEC92E00E94A403FF
:100930002197F1F763E08FEC92E00E94A40383E536
:1009400092E00197F1F762E08FEC92E00E94A4033D
:100950008091DE0280620E94240484E08093DF02A2
:100960008CE00E9424040E942A0482E08093E0022A
:1009700086E0DF91CF910C94240480620E942404CD
:100980008BE496E40197F1F78091DE0280620E9489
:10099000240483E592E00197F1F78091DE02806202
:1009A0000E942404D5CF41E00E94D10381E090E071
:1009B000089541E0682F8FEC92E00E94D10381E01E
:1009C00090E00895FC0180819181009711F00C94D2
:1009D000B20960E070E0CB0108950F931F93CF93AD
:1009E000DF93EC0188819981009759F02A813B813E
:1009F0002617370730F081E0DF91CF911F910F91DB
:100A000008958B016F5F7F4F0E942F0D009759F063
:100A1000998388831B830A832C813D81232B59F77B
:100A2000FC011082E8CF80E0E7CFCF93DF93EC01A9
:100A3000198218821B821A821D821C8270E060E07B
:100A40000E94ED042881398181110FC021153105E3
:100A500019F0C9010E94A60C198218821D821C82FD
:100A60001B821A82DF91CF9108951D821C8265E35B
:100A700072E0C901DF91CF910C94190ECF93DF93EF
:100A8000EC0170E060E00E94ED0428813981811161
:100A90000FC02115310519F0C9010E94A60C198259
:100AA00018821D821C821B821A82DF91CF910895C9
:100AB0001D821C8265E372E0C901DF91CF910C9425
:100AC000190EEF92FF920F931F93CF93DF931F9214
:100AD0001F92CDB7DEB78C0169831A82FC01E480D6
:100AE000F580FFEFEF1AFF0AB7010E94ED0488239B
:100AF00081F0F8012081318184819581BE016F5F91
:100B00007F4F820F931F0E94190EF801F582E48235
:100B100081E00F900F90DF91CF911F910F91FF9087
:100B2000EF9008951F920F920FB60F9211242F93FA
:100B30003F938F939F93AF93BF9380915C0290916B
:100B40005D02A0915E02B0915F023091460223E007
:100B5000230F2D3758F50196A11DB11D2093460294
:100B600080935C0290935D02A0935E02B0935F025B
:100B70008091420290914302A0914402B0914502BB
:100B80000196A11DB11D8093420290934302A09350
:100B90004402B0934502BF91AF919F918F913F91D5
:100BA0002F910F900FBE0F901F90189526E8230FDE
:100BB0000296A11DB11DD2CF789484B5826084BD08
:100BC00084B5816084BD85B5826085BD85B5816051
:100BD00085BD80916E00816080936E0010928100CF
:100BE000809181008260809381008091810081608A
:100BF000809381008091800081608093800080914B
:100C0000B10084608093B1008091B00081608093D6
:100C1000B00080919100826080939100809191005A
:100C2000816080939100809190008160809390001A
:100C30008091A10082608093A1008091A1008160D9
:100C40008093A1008091A00081608093A00080919A
:100C50002101826080932101809121018160809334
:100C600021018091200181608093200180917A0090
:100C7000846080937A0080917A00826080937A0009
:100C800080917A00816080937A0080917A008068F8
:100C900080937A001092C10082E00E9432040E9488
:100CA0002A0422242A94322C51E05093CC028FB78C
:100CB000F89440915C0250915D0260915E027091E7
:100CC0005F028FBF8091BC029091BD02A091BE02D5
:100CD000B091BF02481B590B6A0B7B0B8091C80275
:100CE0009091C902B0E0A0E084179507A607B70766
:100CF000D8F6C0E08091C602C81760F4E091C20245
:100D0000F091C302EC0FF11D62E080810E94F902B4
:100D1000CF5FF0CF712C8091C702781608F061C0C8
:100D2000072D10E0E091C402F091C502E00FF11F21
:100D300061E080810E94F902E091C402F091C50255
:100D4000E00FF11F60E080810E94C70281E090E027
:100D5000A0E0B0E0072C04C0880F991FAA1FBB1F9A
:100D60000A94D2F76C017C01E094F094612C80919C
:100D7000C6026816F8F4C62DD0E0E091C202F091E8
:100D8000C302EC0FFD1F80810E949B022496CC0FB2
:100D9000DD1FC05ADD4F892B41F4888199818C2950
:100DA0009D29998388836394E2CF888199818E21DC
:100DB0009F21F7CFE091C402F091C502E00FF11F2F
:100DC00061E080810E94C7028091C4029091C502B7
:100DD000080F191F60E0F80180810E94F9027394E6
:100DE0009ACFC0E6D2E0FE01878D90A1892B21F435
:100DF000148E368E258E11A2369652E0EC39F50708
:100E000099F710E08091C602181708F053C000E06F
:100E1000E12EF12CEE0CFF1CC70188599D4F7C017F
:100E20002091C702021708F043C0F7016081718169
:100E3000002E02C0769567950A94E2F7129F900102
:100E40001124200F311DE0E6F2E080E0458D568D43
:100E50002417350709F4F5C18F5F36968A30B1F74C
:100E600060FF24C0E0E6F2E090E080E0448D4111B4
:100E700018C0E091C002F091C102E20FF31F40815F
:100E800056E0589FF001599FF00D1124E05AFD4F94
:100E9000448F368F258F10A2178E61E00E948E013D
:100EA00005C0019636968A30910501F70F5FB8CFDD
:100EB0001F5FA8CF80E099A19111892F269692E01B
:100EC000CC39D907C1F79FB7F89440915C02509193
:100ED0005D0260915E0270915F029FBF4093BC0211
:100EE0005093BD026093BE027093BF02882309F441
:100EF000DBCE80918102882309F4D6CEC0917F0297
:100F0000D0918002C130D10509F0CECE10917C0283
:100F1000112309F4C9CE1B3209F461C0C4F41332A1
:100F200091F11A3209F449C080915A0290915B0202
:100F3000892B09F074C10E942A04612F84E592E094
:100F40000E94610584E592E00E942B022EC01F32B0
:100F500009F449C01D3309F44AC01D3229F78DE256
:100F600080934D020E94D90484E592E00E94E2043D
:100F700070934C0260934B0281E090E090935B028F
:100F800080935A0212C010925B0210925A0284E5BA
:100F900092E00E943E058EE492E00E943E05E5E369
:100FA000F2E0E0934D020E942A0480E090E0892B59
:100FB00009F47ACE0E94000077CE10934D028AE2A7
:100FC0000E94D90484E592E00E94E20470934C02EE
:100FD00060934B02D0935B02C0935A02E6CF10930A
:100FE0004D028BE2EDCF10934D028FE2E9CF8EE4FC
:100FF00092E00E94E2049B0140914B0250914C020E
:10100000E0914D02EB3209F46BC00CF04FC0EA32B4
:1010100009F456C08092470290924802A092490279
:10102000B0924A020E942A0410925B0210925A0265
:1010300084E592E00E942B0280914D020E94D90427
:101040008EE492E00E942B02E091E202E23008F08E
:1010500056C0E150F0E0E153FD4F848980680E9462
:10106000240484E392E00E943D03C0904702D090A4
:101070004802E0904902F0904A02A7019601C70198
:10108000B6010E94B30B8823E1F186E392E00E944F
:101090003D0384E592E00E943E058EE492E00E94CA
:1010A0003E05E5E3F2E0E0934D027FCFED32F9F04B
:1010B000EF3209F0AFCFCA01B9010E94B80B12C0DC
:1010C000469F9001479F300D569F300D1124B90166
:1010D000330F880B990B0E94F5094B015C019ACFE5
:1010E000640F751F072E000C880B990BF4CFCA01F3
:1010F000861B970BBC01990F880B990BECCFE1E095
:10110000A9CF26013701E89477F82FEF3FEF4FE79B
:101110005FE7C301B2010E94B30B81110DC02FEF35
:101120003FEF4FE75FE7C301B2010E94EE091816D7
:101130001CF48AE392E0ABCF2FEF3FEF4FE75FE481
:10114000C701B6010E94AE0B18161CF48EE392E0A4
:101150009ECF2FEF3FEF4FE75FECC701B6010E9434
:10116000EE0987FDF3CF20E030E0A901C701B60109
:101170000E94EE0987FF07C08DE20E94D904F7FAAA
:10118000F094F7F8F0942AE037ED43EA5BE3C70107
:10119000B6010E94130B2B013C010E947F0B6B01D7
:1011A0007C010E94F3099B01AC01C301B2010E94C2
:1011B000120B2B013C014AE0C701B6010E944A0311
:1011C0008EE20E94D90420E030E040E251E4C30105
:1011D000B2010E94540A2B013C010E947F0B6B015B
:1011E000F12CE12C4AE0C701B6010E944A03C70175
:1011F000B6010E94F3099B01AC01C301B2010E9438
:10120000120B20E030E040E251E40E94540A0E94B8
:101210007F0B90E080E04AE00E944A033ACF0E94B0
:101220002A04612F8EE492E00E94610584E592E039
:101230000E942B0280914D020E94D9048EE492E01C
:1012400083CE61702BCE1092D2021092D1028CE22A
:1012500092E09093D0028093CF028DE08093D302EE
:101260008FEF8093D4028CE08093D50288E0809346
:10127000D60289E08093D7028AE08093D8028BE07F
:101280008093D9021092DA021092DB021092DC02F3
:101290001092DD021092DE0281E00E943204109270
:1012A000620210926602109265021092670282E258
:1012B00092E09093610280936002ECE7F2E010828A
:1012C000148213821582369682E0E83BF807B9F75C
:1012D00084E092E09093C3028093C20280E092E0A7
:1012E0009093C5028093C40284E08093C6028093E9
:1012F000C70288E092E09093C1028093C0028AE026
:1013000090E09093C9028093C80284EF91E090939B
:10131000CB028093CA021092CE021092CD0210929C
:10132000BC021092BD021092BE021092BF02109237
:10133000CC0284E592E00E9415058EE492E00C94C4
:10134000150580914E0290914F02009711F00E9476
:10135000A60C8091540290915502009711F00C94C4
:10136000A60C08951F93FC0199278827BC01E894D7
:1013700011911032E9F3193010F01E30C8F31B320E
:1013800051F01D3249F4689406C00E94D909610FDA
:10139000711D811D911D119110531A30B0F33EF44F
:1013A00090958095709561957F4F8F4F9F4F1F91BE
:1013B0000895592F482F372F262F660F771F881F24
:1013C000991F660F771F881F991F620F731F841F55
:1013D000951F660F771F881F991F08950E94300A76
:1013E00008F481E00895E89409C097FB3EF49095D5
:1013F0008095709561957F4F8F4F9F4F9923A9F0EE
:10140000F92F96E9BB279395F6958795779567957C
:10141000B795F111F8CFFAF4BB0F11F460FF1BC0C0
:101420006F5F7F4F8F4F9F4F16C0882311F096E953
:1014300011C0772321F09EE8872F762F05C0662301
:1014400071F096E8862F70E060E02AF09A95660FBA
:10145000771F881FDAF7880F9695879597F9089573
:10146000990F0008550FAA0BE0E8FEEF16161706B5
:10147000E807F907C0F012161306E407F50798F01D
:10148000621B730B840B950B39F40A2661F0232B36
:10149000242B252B21F408950A2609F4A140A695B2
:1014A0008FEF811D811D08950E94670A0C94D80A50
:1014B0000E94CA0A38F00E94D10A20F0952311F048
:1014C0000C94C10A0C94C70A11240C940C0B0E94B2
:1014D000E90A70F3959FC1F3950F50E0551F629F85
:1014E000F001729FBB27F00DB11D639FAA27F00D7D
:1014F000B11DAA1F649F6627B00DA11D661F829FA4
:101500002227B00DA11D621F739FB00DA11D621F88
:10151000839FA00D611D221F749F3327A00D611DA5
:10152000231F849F600D211D822F762F6A2F112487
:101530009F5750409AF0F1F088234AF0EE0FFF1FBA
:10154000BB1F661F771F881F91505040A9F79E3F11
:10155000510580F00C94C10A0C940C0B5F3FE4F32E
:10156000983ED4F3869577956795B795F795E79567
:101570009F5FC1F7FE2B880F911D9695879597F970
:10158000089597F99F6780E870E060E008959FEF05
:1015900080EC089500240A9416161706180609060A
:1015A000089500240A9412161306140605060895D9
:1015B000092E0394000C11F4882352F0BB0F40F461
:1015C000BF2B11F460FF04C06F5F7F4F8F4F9F4FA1
:1015D000089557FD9058440F551F59F05F3F71F023
:1015E0004795880F97FB991F61F09F3F79F087958A
:1015F0000895121613061406551FF2CF4695F1DF13
:1016000008C0161617061806991FF1CF86957105A2
:10161000610508940895E894BB2766277727CB01D6
:1016200097F908955058BB27AA270E942A0B0C94BB
:10163000D80A0E94CA0A38F00E94D10A20F039F470
:101640009F3F19F426F40C94C70A0EF4E095E7FBCB
:101650000C94C10AE92F0E94E90A58F3BA176207ED
:1016600073078407950720F079F4A6F50C940B0B0B
:101670000EF4E0950B2EBA2FA02D0B01B9019001AD
:101680000C01CA01A0011124FF27591B99F0593FF1
:1016900050F4503E68F11A16F040A22F232F342F39
:1016A0004427585FF3CF469537952795A795F04087
:1016B0005395C9F77EF41F16BA0B620B730B840B9C
:1016C000BAF09150A1F0FF0FBB1F661F771F881F54
:1016D000C2F70EC0BA0F621F731F841F48F48795AC
:1016E00077956795B795F7959E3F08F0B0CF93959E
:1016F000880F08F09927EE0F9795879508950E9417
:10170000F10A88F09F5798F0B92F9927B751B0F098
:10171000E1F0660F771F881F991F1AF0BA95C9F775
:1017200014C0B13091F00E940B0BB1E008950C94FD
:101730000B0B672F782F8827B85F39F0B93FCCF3B0
:10174000869577956795B395D9F73EF490958095F2
:10175000709561957F4F8F4F9F4F08950E94300A7B
:1017600008F48FEF08950E94300A880B990B0895B2
:1017700097FB072E16F4009407D077FD09D00E943E
:10178000F60B07FC05D03EF4909581959F4F089588
:10179000709561957F4F0895A1E21A2EAA1BBB1B7D
:1017A000FD010DC0AA1FBB1FEE1FFF1FA217B3072D
:1017B000E407F50720F0A21BB30BE40BF50B661F43
:1017C000771F881F991F1A9469F760957095809507
:1017D00090959B01AC01BD01CF010895EE0FFF1F55
:1017E000881F8BBF0790F691E02D1994AA1BBB1B95
:1017F00051E107C0AA1FBB1FA617B70710F0A61B11
:10180000B70B881F991F5A95A9F780959095BC0131
:10181000CD0108950F931F93CF93DF9382309105ED
:1018200010F482E090E0E091E902F091EA0230E009
:1018300020E0B0E0A0E0309799F42115310509F4DB
:101840004AC0281B390B24303105D8F58A819B8189
:101850006115710589F1FB0193838283FE0111C03B
:10186000408151810281138148175907E0F04817E0
:10187000590799F4109761F012960C9312971396EA
:101880001C933296CF01DF91CF911F910F91089554
:101890000093E9021093EA02F4CF2115310551F0CB
:1018A0004217530738F0A901DB019A01BD01DF019E
:1018B000F801C1CFEF01F9CF9093EA028093E902DA
:1018C000CDCFFE01E20FF31F819391932250310996
:1018D00039832883D7CF2091E7023091E802232B68
:1018E00041F420911A0230911B023093E8022093B8
:1018F000E70220911802309119022115310541F4B7
:101900002DB73EB740911C0250911D02241B350B90
:10191000E091E702F091E802E217F307A0F42E1B32
:101920003F0B2817390778F0AC014E5F5F4F241743
:10193000350748F04E0F5F1F5093E8024093E702CF
:10194000819391939FCFF0E0E0E09CCFCF93DF9322
:101950000097E9F0FC01329713821282A091E9020C
:10196000B091EA02ED0130E020E01097A1F420816F
:101970003181820F931F2091E7023091E8022817EE
:10198000390709F061C0F093E802E093E702DF91C4
:10199000CF910895EA01CE17DF07E8F54A815B8110
:1019A0009E0141155105B1F7E901FB83EA83499195
:1019B0005991C40FD51FEC17FD0761F48081918107
:1019C0000296840F951FE901998388838281938110
:1019D0009B838A83F0E0E0E012968D919C911397AF
:1019E0000097B9F52D913C911197CD010296820F88
:1019F000931F2091E7023091E8022817390739F642
:101A0000309751F51092EA021092E902B093E80281
:101A1000A093E702BCCFD383C28340815181840F5E
:101A2000951FC817D90761F44E5F5F4F8881998170
:101A3000480F591F518340838A819B8193838283FE
:101A40002115310509F0B0CFF093EA02E093E902E5
:101A50009ECFFD01DC01C0CF13821282D7CF4F92FF
:101A60005F926F927F928F929F92AF92BF92CF922E
:101A7000DF92EF92FF920F931F93CF93DF938C012E
:101A8000009799F4CB01DF91CF911F910F91FF90B7
:101A9000EF90DF90CF90BF90AF909F908F907F900E
:101AA0006F905F904F900C940A0CFC01E60FF71FAB
:101AB0009C0122503109E217F30708F4AEC0D901A6
:101AC000CD91DC911197C617D70720F1C530D1050C
:101AD00078F0CE0104978617970750F0C61BD70BF6
:101AE0002297C193D1936D937C93CF010E94A60C52
:101AF000C801DF91CF911F910F91FF90EF90DF9080
:101B0000CF90BF90AF909F908F907F906F905F909D
:101B10004F9008955B01AC1ABD0A4C018C0E9D1EBE
:101B2000A091E902B091EA02512C412CF12CE12C58
:101B3000109731F58091E7029091E8028815990598
:101B400009F05CC04616570608F058C0809118028C
:101B500090911902009741F48DB79EB740911C02F5
:101B600050911D02841B950BE817F90708F055C02A
:101B7000F093E802E093E702F90171836083B8CF44
:101B80008D919C91119712966C90129713967C9060
:101B90001397A815B90559F56C0142E0C40ED11C84
:101BA000CA14DB0420F1AC014A195B09DA01129670
:101BB000159780F06282738251834083D9016D93BF
:101BC0007C93E114F10471F0D7011396FC93EE932A
:101BD00012978ECF22968C0F9D1FF90191838083DF
:101BE000F301EFCFF093EA02E093E90281CF4816C8
:101BF000590608F42C017D01D3019ACFCB010E9434
:101C00000A0C7C01009749F0AE01B8010E94100E49
:101C1000C8010E94A60C87016BCF10E000E068CFDE
:101C2000FB01DC0102C001900D9241505040D8F7F9
:101C30000895FB01DC0101900D920020E1F7089569
:101C400011E0C7E3D1E000E006C0802FFE010E9452
:101C5000EE0B2196011DC833D10780E00807A9F7D4
:041C6000F894FFCF26
:101C64001A1B1C1D161718193738392F3435362A04
:101C74003132332D23303D2B0000EB028000000075
:101C840000003503F502C40200000000D304FE0185
:101C94003A0339033D006E616E00696E66006F762B
:021CA4006600D8
:00000001FF
